:020000040000FA
:100000000212FF022003FFFFFFFFFF02200BFFFF92
:10001000FFFFFF020E61FFFFFFFFFF02201BFFFF3C
:10002000FFFFFF022023FFFFFFFFFF02202BFFFF48
:10003000FFFFFF022033FFFFFFFFFF020EA4FFFFC1
:10004000FFFFFF022043FFFFFFFFFF02204BFFFFE8
:10005000FFFFFF022053FFFFFFFFFF02205BFFFFB8
:10006000FFFFFF022063FFFFFFFFFF02206BFFFF88
:10007000FFFFFF022073FFFFFFFFFF02207BFFFF58
:10008000FFFFFF022083FFFFFFFFFF02208BFFFF28
:10009000FFFF70DFFFFF040000000002000000C847
:1000A0000300030369A5020269A501000000000026
:1000B00004003273000074F8121046900393E0605D
:1000C0001590030274FEF0900304744DF0A37405C0
:1000D000F07A011206857F0102116374F71210464F
:1000E00074FF12126B7E00801F851882851983E0D1
:1000F00064FE70069003877401F085188285198369
:10010000E0F8900384E068F07C017D00AA18AB1948
:10011000120E1C8B09EA450970030201F38518824F
:10012000851983E064EF70027E07E0C0E0900387EA
:10013000E0FA900385E0F8EA28F8E43400F9740264
:1001400028F582740339F583D0E0F0900387E060EE
:100150009814600E14602C14603C14605214606893
:100160008098900384E4F0851882851983E09003D9
:1001700086F0C394809003874004E40200F974027F
:100180000200F9851882851983E0900382F09003BC
:100190008774030200F9851882851983E090038330
:1001A000F0900386E0601990038774040200F990D0
:1001B0000385E004F0F8900386E06860030200FA2B
:1001C00090038774050200F9900385E4F09003879B
:1001D000F0900384E0F8851882851983E068600355
:1001E0000200FA900382E0644D60030200FA1203F9
:1001F000288002EEF974011212377F020211637433
:10020000F712104674FB12126BEAFEEBFF7508043E
:1002100075090078081212CF74021212E87A907BE6
:10022000007904120EC574021212371206771213E7
:1002300039E0687003A3E06970128518828519831C
:10024000E0F47003A3E0F4600302030874041212E4
:10025000E01206DD8A088B09A808A90974021213A6
:1002600039E8F0A3E9F07404121339E06008790169
:100270001200B6020321851882851983E068700395
:10028000A3E0697076851882851983E0F47003A372
:10029000E0F4701974021213397410F0A37420F092
:1002A0008518828519837410F0A37420F0750801F5
:1002B00075090078081212CF74021212E87A247BB2
:1002C00008120F49740212123775080478081212C6
:1002D000CF74021212E87A907B007904120EC57472
:1002E00002121237120677121339E0687003A3E086
:1002F000697004790280067904800279031200B6DD
:100300008E828F83741E80058E828F83E4F01206A6
:1003100077121339E0687003A3E0697004790180F3
:1003200002790074050201F774ED12104674F81298
:10033000126B900307E0FD900306E0FCFAEDF8E491
:10034000C8F9EA28FEE93408FF751001750B00753D
:100350000A068E088F0974027808121296C395084F
:10036000F8E49509F9740228F50E740339F50F8E37
:10037000088F09740978081212F0E508F511EE24C7
:1003800010F508E43FF509EEF50CEF5401F50D907A
:100390000383E014605914700302046414700302B0
:1003A00004DF14601024FE700302059A1470030227
:1003B000064A02065A750A03794E120C5B9003072F
:1003C00012066D7402F0A3744012066B74081206D4
:1003D0006BF0A3F07418C3940704F510AA10A90BCE
:1003E000120685A90A74081212377F0C0211637570
:1003F0000A04794E120C5BEE450D7005A911120F1F
:10040000AFC3EE9425EF9408503CC3E5089424E56F
:100410000994084031E50E2496F8E50F3420F98858
:10042000828983E0701BA3AA82AB83E070139003E0
:10043000887401F08882898374A5F08A828B838016
:1004400004900388E4F0750810750900780812120A
:10045000CF7C087D03EEFAEFFB120F4974021212F3
:10046000370203DC750A05E511C394794006750B64
:10047000010203DC75124075130078121212CF7C52
:10048000097D037402780C121296AA0CAB0DA91107
:10049000120EC57402121237900307E0A3F0900306
:1004A00006E0A3F0751043C3EE9425EF94084003D3
:1004B0000203DCC3E5089424E50994085003020311
:1004C000DC900388E070030203DCE50E2497F8E576
:1004D0000F3420F988828983E4F0A3F00203DC75ED
:1004E000080475090078081212CF74021212E87A13
:1004F000907B007904120EC5740212123774021236
:100500001339E0F8A3E0F9851882851983E0687053
:1005100003A3E069851882851983700BE0F47003EA
:10052000A3E0F470578009E0F47003A3E0F4700DC9
:100530008518828519837410F0A37420F012067751
:10054000121339E8F0A3E9F075080178081212CF08
:1005500074021212E87A247B08120F4974021212F4
:100560003775080478081212CF74021212E87A90D4
:100570007B007904120EC57402121237120677122C
:100580001339E0687003A3E0697006750A0102037D
:10059000DC750A02750B070203DC900391E060072B
:1005A000640260030203DCEDFF7A01790012068524
:1005B000E0600302063E8003120D1C120D26E97056
:1005C000F7740412133912065F7404121339780891
:1005D00012131D85080C85090D850A0E850B0F90D9
:1005E00005A2780C1212BC7404121339780C121381
:1005F0000EE5084509450A450B70CE8EC2E5C55487
:10060000E04FF5C5740412133912065F7404121317
:1006100039780812131D85080C85090D850A0E8589
:100620000B0F9005A2780C1212BC740412133978C7
:100630000C12130EE5084509450A450B70CE7A01E8
:10064000790012068579080203E5EC900393F070B7
:10065000030203DC750A090203DC79060203E5E400
:10066000F0A37426F0A3E4F0A3F022F0A3E4F0A337
:10067000F0A3F0A3F0A322851882851983E0F8A3E4
:10068000E0F974022274F8121046EAFE900305E0C5
:10069000D2E7F0E9A3F0EE900303F08E0874042A89
:1006A000FE7C028004E062080CECFA3395E0FB74F7
:1006B000022AF58274033BF583EEF8C3EA98EB94C3
:1006C00000A2D265D03340DDE508F074012A0C3376
:1006D00095E0FD7A027B03120E4C0200D674E912FB
:1006E00010467582007583FE1211FE8A168B1775EF
:1006F00014007515008A828B83E4F0900391E070FA
:1007000006D2AAD2AF80046402700579001200B646
:10071000750C00750D20750E00750F00900391E0AB
:10072000600464027015120D1C1200DBE9F87409F4
:1007300068600302080D79001200B675080075099B
:100740000278081212CF74021212E8850C08850D87
:1007500009AA08E5095407FB850E0A850F0B740BDF
:100760007808121252A908120EC574021212377EAE
:10077000007F009005AAC0828E10EFF5113395E03E
:10078000F512F513850C08850D09850E0A850F0BEA
:10079000780879101212A99005A678081212BC7573
:1007A0008305D08278081211DF501D8518828519C3
:1007B00083E5822EF582E5833FF583E0F9AA14AB49
:1007C0001512083C8A148B150EEE70010FC3EF94BE
:1007D0000240A09005AE780C1212BC9005B2780CC5
:1007E0001211DF400302071C7900AA14AB1512088E
:1007F0003C790012083C8B15900391E07004C2AF65
:10080000C2AAEA451570277AA57BA58021E8700366
:1008100002073B740668700302073B7407687003A5
:1008200002073B8516828517837401F080BA7582B2
:10083000007583021211FE7F10021163C008C00907
:100840007C088A088B09740F78081212F0E508F802
:10085000EA25E0FAEB33FBE9A2E7500474014AFA17
:10086000E8A2E0500874216AFA74106BFBE9C33304
:10087000F91CEC70CDD009D0082274F8121046781B
:10088000007900802274942EF582E43403F583E02D
:100890008A828B83F09004141209FA4005900414A4
:1008A000E4F008E8700109900414E0FEA3E06E6033
:1008B00007C3E89CE99D40CDE8FAE9FB7F010211FE
:1008C0006374F7121046900498E0F509A3E0F50868
:1008D000F8E509C398F895E0F9E508C39509E850EB
:1008E0000B120ADC701178007900801B247F500104
:1008F00009C39CE99D50EF7A007B008041E004F041
:10090000D2E908E8700109C3E89CE99D502C8A826D
:100910008B83E0C0E0900499E0FE74182EF582E429
:100920003404F583D0E0120ACC90049AE4F09004E9
:1009300099E0C3947F40C6E480C5E8FAE9FB7F02F2
:10094000021163C082C083C2E9900498E0F8A3E07A
:10095000686017741828F582E43404F583E0F5C163
:10096000900498120AF34002E4F0020D3A74F8126F
:1009700010467800790090051DE07055A3E0705195
:1009800075F900C28FC284A28340FCA28F4004A2EA
:100990008350F8AEF9C28FA2835004D2848032EE25
:1009A000C0E0E0FE1209EFD0E0F090051E120AF35D
:1009B00040D9E4F080D51209EFE08A828B83F09071
:1009C000051D1209FA400590051DE4F008E87001C4
:1009D0000990051DE0FEA3E06E6007C3E89CE99D59
:1009E00040D4E8497006E4F090051DF00208B874A0
:1009F0009D2EF582E43404F58322E004120AD0C36C
:100A000094802274F81210469005A0E0FEF890053C
:100A10009FE0FFEEC39FE0500DC398F895E0F912F8
:100A20000ADB70188012C398F895E0F9E8247F502B
:100A30000109C39CE99D4004EC4D70077A007B00DE
:100A4000020AC98A828B83E0F5F9A3AA82AB837874
:100A50000179008008E004F008E8700109C3E89C0F
:100A6000E99D50278A828B83E0C0E09005A0E0FEDC
:100A7000741F2EF582E43405F583D0E0120ACC9081
:100A800005A0E0C3947F40CDE480CCC28FA2834018
:100A9000FCC284A28F4004A28350F890059F120AE2
:100AA000E6E0F5F9C28F90059FE0FAA3E06A9005B1
:100AB0009F7005120AE68005120AF34002E4F0A2D4
:100AC0008350D0D284E8FAE9FB0208BC120AD02293
:100AD000F08A828B83A3AA82AB8322E824FF18E9E1
:100AE00034FFF9E84922E0FA741F2AF582E434055C
:100AF000F58322E004F0C394802274FB12126B7E13
:100B0000009005CA780812131D9005CA7401F0A35D
:100B1000F0A37469F0A374A5F09005B678081212DA
:100B20008170047E0180159005BA780812128160E8
:100B300008E59D541864107003022000120C81EE29
:100B4000A2E05003020BFEAA18AB191201FFE970D4
:100B500003020BFE851882851983E0C3943C500C78
:100B6000E0F8743CC398FA95E0FB80047A007B00BF
:100B7000120D3FE97003020BFE900391E0640170D7
:100B80000C75F800C2AB539AF7D2EA805E7907126F
:100B900000B68003120D1C120D26E970F7740112C5
:100BA0001339E4F0A37426F0A3E4F0A3F074011267
:100BB0001339780812131D85080C85090D850A0E56
:100BC000850B0F9005A2780C1212BC740112133918
:100BD000780C12130EE5084509450A450B70CE75D1
:100BE0008600C2AAC28B539AFBC2E990000174CD61
:100BF000F0022000C2AF75C9AB75C95B80FE7508F5
:100C000000750900750A00750B00900391E0701BD8
:100C1000D2AAD2AF79051200B6E07003120D1C12F1
:100C200000DBE9F8740968700980E9794E120C5B01
:100C300080ED74016870E2E07017120D1C9005BE23
:100C400078081212BC9005C278081211DF50EBC26E
:100C5000AAC2AF75C9AB75C95B80FEC082C083787C
:100C6000109005A1E0C399501575B60FE5B4A2E741
:100C700050FAE5BBC39940F118E870EDE9F0020DB8
:100C80003AC082C08353BEFBE59DA2E650FA0078CD
:100C9000F8790100120ADB70FA75C6807480659ECF
:100CA00070FA43BE049062707408F0794A120C5BCB
:100CB00090000174F5F07403F5D575D489A2A0E411
:100CC00033900391F0A2E05029D28453F3F753F309
:100CD000EF53FDF743FD10538FF753F7DF43FC202D
:100CE00043F10253F5DF75F82043F4F0D2FED2ABA6
:100CF000802853FF3F85FFFF53F1FE43F30C53F26F
:100D0000F375868075C48090049BE4F0A3F075C2EF
:100D1000D875C50B75C402438640801E8003120936
:100D200043A2E940F922C082C083900498E0F8A36E
:100D3000E0686004790180027900D083D082227457
:100D4000F112104674FF12126B7E00900391E06462
:100D500001706CC2849003927401F07508388E099A
:100D60008E0A8E0B7C017D00AA18AB19120E1C8B0B
:100D70000DEA450D6018851882851983E0641060BE
:100D80002DE064EF70088E088E098E0A8E0B8508A0
:100D90000C85090D850A0E850B0F9005A2780812A7
:100DA00012BCE50C450D450E450F70347E019003D5
:100DB00091E064017056D284900392E4F08051D2A5
:100DC000AAD2AF8A088B09E4F50AF50B9005C6781C
:100DD0000C12131D7808790C120FC679061200B692
:100DE000900391E06003020D64120D1C1200DBE918
:100DF000F8740968700779061200B6809174076864
:100E00006084E8608974066870A48082C2AFC2AA58
:100E1000EEF974011212377F08021163C082C08399
:100E2000900391E0700512087A801E900392E060B2
:100E300015A28F500BE5F98A828B83F07A0180022C
:100E40007A007B00800312096D020D3AC082C083D4
:100E5000900391E070051208C18003120A03020D8D
:100E60003AC0E074F21210AC900001E064CD70055D
:100E7000122013802AE064F57024E5C1C28BC0E023
:100E8000900415E0F8749428F582E43403F583D0D7
:100E9000E0F0900415120AF34005E4F08001007FB1
:100EA0000102110BC0E074F21210AC900001E0647A
:100EB000CD700512203B800BE064F57005120943EC
:100EC00080010080DA74F6121046890A740F550A00
:100ED000F508750900740B7808121296EA2400F8D8
:100EE000EB3480F9E82400E93509F985C709A2AF98
:100EF000E433F508C2AFE50AC4540FFAE5C754F865
:100F00004AF5C7740A121339E0FAA3E0FB801C8883
:100F1000828983E08C828D83F088828983A3A88272
:100F2000A9838C828D83A3AC82AD83EAFEEBFFEEB6
:100F300024FF1AEF34FFFBEE4F70D48509C7E50894
:100F4000A2E092AF7F0302116374F7121046ED9096
:100F50000389F0ECA3F0A37462F0A37473F0A3E030
:100F6000541FF07409121339E0F508A3E0F509E500
:100F700008333354FC90038EF0740678081212F094
:100F8000E50890038DF090038F7412F0A37442F083
:100F900075D1FE75D601EA906271F0EBA3F0906214
:100FA00070E0D2E1F0E0A2E740FB7F02021163C0F3
:100FB00082C083E9C333906272F0906270E0D2E045
:100FC000F0D083D08222080808EAC0E0EBC0E086B7
:100FD000F0E7A4FA180986F0E7A42AFA180986F0BF
:100FE000E7A42AFA180986F0E7A42AFA1986F0E796
:100FF000A4FBE5F02AFA190886F0E7A42BFBE5F03C
:101000003AFA190886F0E7A42BFBE5F03AFA18182B
:101010000986F0E7A4C5F02BFBE43AFA1908E7C506
:10102000F0C6A426F6E5F03BFBE43AFA1886F0E7B2
:10103000A4F6E5F00826F6E43B08F6E43A08F6D014
:10104000E0FBD0E0FA222518C582C0E0E51934FFA4
:10105000C583C0E0E518C3958224F910AF088583E5
:10106000198582188008858319858218D2AFCEF041
:10107000A3E520F0A37808E608F0A3DEFAEFF0A3DA
:10108000E58124FBF8E608F0A3E608F0A30808E6EB
:1010900008F0A3E608F0A315811581D0E0FED0E0AA
:1010A000F815811581E8C0E0EEC0E022C0D0251817
:1010B000C582C0E0E51934FFC583C0E0E518C395DB
:1010C0008224F310AF0885831985821880088583F0
:1010D00019858218D2AFC8F0A3E9F0A3EAF0A3EB18
:1010E000F0A37908E709F0A3D8FAECF0A3EDF0A398
:1010F000EEF0A3EFF0A3D0E0F0A3D0E0F0A3D0E0B7
:10110000F0A3E520F0A3E5F0F0A32285198385186C
:1011100082E0C0E0A3E0F9A3E0FAA3E0FBA3780833
:10112000E0F608A3DFFAE0FCA3E0FDA3E0FEA3E005
:10113000FFA3E0C0E0A3E0C0E0A3E0F5D0A3E0F5AA
:1011400020A3E0A3F5F010AF0885831985821880ED
:1011500008858319858218D2AFD082D083D0E0F879
:10116000D0E032851983851882E0A3FEE0A3F52044
:101170007808E0A3F608DFFAE0A3FFE0A3C0E0E010
:10118000A3C0E0E0A3C0E0E0A3C0E010AF08858208
:10119000188583198008858218858319D2AFD0837A
:1011A000D08222E490030278A179038002F0A3D8D0
:1011B000FCD9FA7AA27B0590008E782979018015F6
:1011C000E493A3AD82AE838A828B83F0A3AA82AB21
:1011D000838D828E83D8E9D9E7120AFA121343C0AD
:1011E00008C3E096F50808A3E096420808A3E09635
:1011F000420808A3E09645087001D3D00822C582B2
:101200002518C582C583351910AF07F519858218D1
:101210008007F519858218D2AFC583222518F5827B
:1012200010AF08F518400C15198008F51840021584
:1012300019D2AF8519832200C0D0251810AF08F548
:1012400018500C05198008F51850020519D2AFD0B6
:10125000D0226016080808C6C313C618C613C618DD
:10126000C613C618C613C6D5E0EA22251810AF0863
:10127000F518400C15198008F51840021519D2AF61
:1012800022E066701008A3E066700A08A3E06670AA
:101290000408A3E06622700422600D18C6C333C69A
:1012A00008C633C6D5E0F41822E627F60809E63763
:1012B000F60809E637F60809E637F622E026F608CA
:1012C000A3E036F608A3E036F608A3E036F622746B
:1012D000028000C0E0F40412121CD0E012132C2291
:1012E0002518FAE43519FB222518FCE43519FD22EE
:1012F000600C08C6C313C618C613C6D5E0F4227521
:10130000D00075813F7518027519030211A3E6F02C
:1013100008A3E6F008A3E6F008A3E6F022E0F6084A
:10132000A3E0F608A3E0F608A3E0F622CAC0E0E6D0
:10133000F0A308DAFAD0E0FA222518F582E435198C
:10134000F5832200000080FBFFFFFFFFFFFFFFFF90
:10135000FFFFFFFFFFFFFFFFFFFFFFFFFFFFFFFF9D
:10136000FFFFFFFFFFFFFFFFFFFFFFFFFFFFFFFF8D
:10137000FFFFFFFFFFFFFFFFFFFFFFFFFFFFFFFF7D
:10138000FFFFFFFFFFFFFFFFFFFFFFFFFFFFFFFF6D
:0A1FF600CA05094338860000000008
:020000040003F7
:01FFF000F020
:020000040000FA
:10200000022C5E0221FDFFFFFFFFFFFFFFFFFFFF2E
:10201000FFFFFFFFFFFFFFFFFFFFFFFFFFFFFFFFD0
:10202000FFFFFFFFFFFFFFFFFFFFFF0229EAFFFFA8
:10203000FFFFFFFFFFFFFFFFFFFFFFFFFFFFFFFFB0
:10204000FFFFFF022759FFFFFFFFFFFFFFFFFFFF1B
:10205000FFFFFF022137FFFFFFFFFFFFFFFFFFFF33
:10206000FFFFFFFFFFFFFFFFFFFFFF022904FFFF4E
:10207000FFFFFFFFFFFFFFFFFFFFFFFFFFFFFFFF70
:10208000FFFFFF02218E01FFFFFFFFFFFFFFFFFFAA
:10209000102010200196511800020000C5300000E9
:1020A00000005F30433195300D3100008930000071
:1020B0000000000000000000000000000000000020
:1020C00000000000000006FFFFFF01010400A3194B
:1020D000000000E8030000FFFF721A03E80300009D
:1020E00064006400B801A0BB0D00A0BB0D0002029B
:1020F000000800000502070401051E02051E020A71
:102100000A01080803B80B02803E0102FEFFE80343
:102110000A050001FFFF0A1401E0010105030101A6
:10212000FF0F10FEFF304D00000000A24B0000002A
:1021300000FF000000FF00C0E074F2122578A2AF9B
:10214000E433F508D2AFAFA7AEA1EE5F541060063E
:10215000122DD775A1EFEE5F54086008122DDD75C2
:10216000A1F78023EEA2E092F0EFA2E082F05017F8
:10217000906198E0F8900928E0C398A2D265D03326
:102180005002E8F075A1FE751A00E5088066C0E00F
:1021900074F2122578A2AFE433FED2AF9061A4E0CE
:1021A000F8759B00E59158540860087591F7122E58
:1021B000258023E59158541060087591EF122E2B5D
:1021C0008014E591A2E092F0E8A2E082F05007E0EE
:1021D000C2E0F0122F8D9061A3E0F8E5E9585404B5
:1021E000600E122F6375E9FB906193E0A2E640F266
:1021F000751A00EEA2E092AF7F010225D7C0E0740D
:10220000F2122578A2AFE433FED2AF9061A5E0F8D8
:10221000E5BF585404600675BFFB122FA580D1C3DB
:10222000E498F8E499F91222608026C3E49AFAE46B
:102230009BFBE920E7E9122260E498F8E499F9228F
:10224000C3E498F8E499F9122260E498F8E499F963
:10225000C3E49AFAE49BFB22EB20E7CFE920E7E016
:10226000B90010BB0008E88AF084F8AAF022E4FB69
:10227000C8FA22EB70227B10C833C8C933C9335067
:1022800007C39AC3DBF280069A50012ADBEAC833FF
:10229000F4C8C933F4C9FA2275F008E4C833C8C9D0
:1022A00033C933C99AC99B5004C92AC93BD5F0EC3C
:1022B000FBC833F4C8E4C9FA2274F512251274FA83
:1022C000122AD17508047509007808122A2A7404A4
:1022D000122A9B7AF87B07790312480B7402122AA0
:1022E0003D9080DA7808122C6E7402122CFB78086C
:1022F000122AFC70487508027509007808122A2A0B
:102300007402122A9B7AF67B07790312480B740237
:10231000122A3D851882851983E0F47003A3E0F446
:10232000601B851882851983E0F8A3E08882F58315
:102330007402F0A3F0A37469F0A374A5F0C2AF75A2
:10234000D69F0200007406122A3D7F0402279C08D3
:102350000808EAC0E0EBC0E086F0E7A4FA180986B6
:10236000F0E7A42AFA180986F0E7A42AFA180986E1
:10237000F0E7A42AFA1986F0E7A4FBE5F02AFA1997
:102380000886F0E7A42BFBE5F03AFA190886F0E797
:10239000A42BFBE5F03AFA18180986F0E7A4C5F07B
:1023A0002BFBE43AFA1908E7C5F0C6A426F6E5F0D7
:1023B0003BFBE43AFA1886F0E7A4F6E5F00826F6C7
:1023C000E43B08F6E43A08F6D0E0FBD0E0FA22E479
:1023D000CFC0E0E4CEC0E0E4CDC0E0E4CCC0E07526
:1023E000F020E626F608E633F608E633F608E6338C
:1023F000F6181818EC33FCED33FDEE33FEEF33FF27
:10240000C3EC9709ED9709EE9709EF971919194051
:102410000FFFEC97FC09ED97FD09EE97FE191906E1
:10242000D5F0BFECF709EDF709EEF709EFF7191949
:1024300019D0E0FCD0E0FDD0E0FED0E0FF2225186E
:10244000C582C0E0E51934FFC583C0E0E518C39537
:102450008224F810AF088583198582188008858347
:1024600019858218D2AFCEF0A3E520F0A37808E654
:1024700008F0A3DEFAEFF0A3E58124FAF8E608F00D
:10248000A3E608F0A3E608F0A30808E608F0A3E630
:1024900008F0A315811581D0E0FED0E0F815811574
:1024A000811581E8C0E0EEC0E022122CF0B90003F3
:1024B0000224FCE49004D17881791A8002F0A3D838
:1024C000FCD9FA781A9020867A01BA00028007E4D3
:1024D00093A3F608DAF97A517B1E90209478A479B8
:1024E000018015E493A3AD82AE838A828B83F0A32F
:1024F000AA82AB838D828E83D8E9D9E775829275E3
:1025000083AE74061229CC75829D758349740012BE
:1025100029CC2518C582C0E0E51934FFC583C0E089
:10252000E518C3958224F910AF08858319858218B0
:102530008008858319858218D2AFCEF0A3E520F0FC
:10254000A37808E608F0A3DEFAEFF0A3E58124FB08
:10255000F8E608F0A3E608F0A30808E608F0A3E60A
:1025600008F0A315811581D0E0FED0E0F8158115A3
:1025700081E8C0E0EEC0E022C0D02518C582C0E0EE
:10258000E51934FFC583C0E0E518C3958224F31034
:10259000AF0885831985821880088583198582187C
:1025A000D2AFC8F0A3E9F0A3EAF0A3EBF0A3790857
:1025B000E709F0A3D8FAECF0A3EDF0A3EEF0A3EF57
:1025C000F0A3D0E0F0A3D0E0F0A3D0E0F0A3E520AA
:1025D000F0A3E5F0F0A322851983851882E0C0E01E
:1025E000A3E0F9A3E0FAA3E0FBA37808E0F608A3D0
:1025F000DFFAE0FCA3E0FDA3E0FEA3E0FFA3E0C060
:10260000E0A3E0C0E0A3E0F5D0A3E0F520A3E0A3C1
:10261000F5F010AF08858319858218800885831925
:10262000858218D2AFD082D083D0E0F8D0E032FFDC
:1026300075F0108E218F228582268583258518824C
:10264000851983E0CEA3E0CF852682852583EBC95B
:10265000EAC8EDCBECCAC3E833C8E933C9EA33CAE8
:10266000EB33CBC3EA9EF524EB9FF523B35004ABC9
:1026700023AA24EC33CCED33CDD5F0DAAE21AF2252
:1026800022D083D082ECC0E0EDC0E0E493A3FCE470
:1026900093A3FDED4C600D1227DCEC24FFFCED3420
:1026A000FFFD80EFE493A3FCE493A3FDED4C600DEC
:1026B0001228AFEC24FFFCED34FFFD80EFD0E0FDED
:1026C000D0E0FCE493A3C0E0E493C0E0228519834A
:1026D000851882E0A3FEE0A3F5207808E0A3F608C1
:1026E000DFFAE0A3FFE0A3C0E0E0A3C0E0E0A3C006
:1026F000E0E0A3C0E0E0A3C0E010AF088582188549
:1027000083198008858218858319D2AFD083D0823F
:102710000229D2D083D082E9C0E0E493A3C386F03B
:10272000C5F095F0F908E493A386F0C5F095F07034
:102730000BE493A3C3994005E9048002A3E475F078
:1027400002A42582F582E5F03583F583D0E0F9E433
:1027500093A3C0E0E493C0E022C0E074F2122578B5
:10276000A2AFE433FED2AFC2C0901B1FE0700BE5F6
:10277000D1A2E4501D122D358018E5D1A2E35006F8
:1027800075D1F7122D0BE5D1A2E4500675D1EF12E9
:102790002D11EEA2E092AF7F010225D78519838526
:1027A0001882E0A3FEE0A3F5207808E0A3F608DF96
:1027B000FAE0A3FFE0A3C0E0E0A3C0E0E0A3C0E034
:1027C000E0A3C0E010AF08858218858319800885D2
:1027D0008218858319D2AFD083D08222C0E0C3E4AF
:1027E0009396087401939618400FE4936670080856
:1027F000740193661870007019A3A3C3E49396083C
:102800007401939618A3A3400DD0E0D0E0D0E0026D
:1028100026BDA3A3A3A3A3A3D0E022D083D082C5C7
:10282000F0E493A3C5F0C395F0F5F0E493A3C3954A
:10283000F04005E5F0048001E475F002A42582F57E
:1028400082E5F03583F583E493A3C0E0E493C0E030
:10285000227404800474028000CCC0E0EDC0E0E586
:1028600018C39CCCAD1950011D10AF068C188D19E2
:1028700080068C188D19D2AF12294ED0E0FDD0E021
:10288000FC2274028000CCC0E0EDC0E0E518C39CDF
:10289000CCAD1950011D10AF068C188D1980068C17
:1028A000188D19D2AF12292CD0E0FDD0E0FC22C047
:1028B000E0C0F088F0E4936670080874019366182D
:1028C0007000A8F0A3A3700BD0F0D0E0D0E0D0E06F
:1028D0000226BDA3A3D0F0D0E022D083D082CCC00A
:1028E000E0E493A3600612298E1470FAE493A360C7
:1028F00006122ABB1470FAD0E0FCE493A3C0E0E413
:1029000093C0E022C0E074F2122578758900C2C538
:10291000901B1FE0700E7A007B109009C0E0F91246
:10292000326F8003123AFD7F010225D7CAC0E0E46E
:1029300093A3C582CCC582C583CDC583F0A3C582D0
:10294000CCC582C583CDC583DAE5D0E0CA22CAC032
:10295000E0E0A3C582CCC582C583CDC583F0A3C505
:1029600082CCC582C583CDC583DAE6D0E0CA22C059
:1029700008C3E096F50808A3E096420808A3E0968D
:10298000420808A3E09645087001D3D00822C0E0B1
:10299000E493A3D39C5010E493A3C39C400AD0E0DB
:1029A000D0E0D0E00228F7A3A3A3D0E0227009086A
:1029B0000808226016181818C6C333C608C633C6DE
:1029C00008C633C608C633C6D5E0EA22C09FF59FC5
:1029D000E473D09F22D083D082C09FE493C0E07480
:1029E0000193C0E0740293F59F22C0E0C0D0E8C01C
:1029F000E0A8A8D2AFC2C7751A00E8A2E792AFD08C
:102A0000E0F8D0D0D0E0322518F58210AF08F518E4
:102A1000400C15198008F51840021519D2AF851918
:102A200083227404800A7403800674028002740195
:102A3000C0E0F404122A07D0E0122C9B2200C0D080
:102A4000251810AF08F518500C05198008F5185016
:102A5000020519D2AFD0D022BB0102E722C082C04A
:102A60008389828A83BB0003E08002E493D083D011
:102A700082226016080808C6C313C618C613C618F3
:102A8000C613C618C613C6D5E0EA222518F8E435E1
:102A900019F9222518FAE43519FB222518FCE4352A
:102AA00019FD22C3E0C696F608A3E0C696F608A371
:102AB000E0C696F608A3E0C696F622C0E0E493A32B
:102AC0006C7009D0E0D0E0D0E00228F7A3A3D0E0FA
:102AD00022251810AF08F518400C15198008F518B4
:102AE00040021519D2AF22E76670100809E7667038
:102AF0000A0809E76670040809E76622E0667010B4
:102B000008A3E066700A08A3E066700408A3E06604
:102B100022C3E09608A3E09608A3E09608A3E096F7
:102B2000A2D265D03322C3E096F008A3E096F00865
:102B3000A3E096F008A3E096F022C3E697F6080912
:102B4000E697F60809E697F60809E697F622C3E441
:102B500093960874019396087402939608740393ED
:102B60009622E627F60809E637F60809E637F6085A
:102B700009E637F622E026F608A3E036F608A3E0D9
:102B800036F608A3E036F622E493F608740193F6CD
:102B900008740293F608740393F622E647F60809D0
:102BA000E647F60809E647F60809E647F622E6573B
:102BB000F60809E657F60809E657F60809E657F653
:102BC00022E056F608A3E056F608A3E056F608A35E
:102BD000E056F622E056F008A3E056F008A3E056CF
:102BE000F008A3E056F022E026F008A3E036F00853
:102BF000A3E036F008A3E036F022700422600D183E
:102C0000C6C333C608C633C6D5E0F41822E4C3965B
:102C1000F608E496F608E496F608E496F622C6F47A
:102C2000C608C6F4C608C6F4C608C6F4C622600DB7
:102C300008C6A2E713C618C613C6D5E0F322C3E739
:102C4000960809E7960809E7960809E79622C3E07F
:102C50009608A3E09608A3E09608A3E0962275D014
:102C60000075813F7518D1751904000224AAE0F699
:102C700008A3E0F608A3E0F608A3E0F622600C083B
:102C8000C6C313C618C613C6D5E0F422E6F008A3DF
:102C9000E6F008A3E6F008A3E6F022CAC0E0E6F0FA
:102CA000A308DAFAD0E0FA22E0F8A3E0F9A3E0FA08
:102CB000A3E0FB22E0FCA3E0FDA3E0FEA3E0FF22F3
:102CC000EAF0A3EBF0A3ECF0A3EDF022E0FAA3E02E
:102CD000FBA3E0FCA3E0FD22ECF0A3EDF0A3EEF0FB
:102CE000A3EFF022E8F0A3E9F0A3EAF0A3EBF022CF
:102CF000E5C754F84401F5C77901222518F582E4A7
:102D00003519F583221229D5B07F001229D5B97F54
:102D1000001229D5C77F001229D5C879001229D5FC
:102D2000347A001229D5FC7A001229D5DD7B0012F5
:102D300029D5DA7D001229D5417E001229D5947E4D
:102D4000001229D5A57E001229D5B57E001229D5FD
:102D5000277F001229D53D7F001229D5487F001218
:102D600029D5567F001229D5687F001229D59FF9F1
:102D7000031229D5CBF9031229D54DFC031229D50D
:102D8000A4FC031229D5E4FC031229D5F8FC031294
:102D900029D511FD031229D502FE031229D5B3FE50
:102DA000031229D5C7FE031229D5F8B1061229D579
:102DB0001CB2061229D535B2061229D567B2061201
:102DC00029D597B2061229D5C4B2061229D5CEB29A
:102DD000061229D530B3061229D53FB3061229D5DC
:102DE00049B3061229D556B3061229D508A30612EF
:102DF00029D528A3061229D567A3061229D582A3AF
:102E0000061229D5A1A3061229D507A4061229D591
:102E100010A4061229D56DA4061229D591A4061274
:102E200029D552A5061229D55FA5061229D570A568
:102E3000061229D517BF061229D52FBF061229D58C
:102E40005BBF061229D5ECFA051229D540FC051204
:102E500029D54EFC051229D561FC051229D576FC31
:102E6000051229D58BFC051229D59EFC051229D502
:102E700012FD051229D577FD051229D5FFFD051292
:102E800029D57BFE051229D53FFF051229D54FFF15
:102E9000051229D55EFF051229D57EBE061229D559
:102EA000A2BE061229D5CABE061229D5F2BE061246
:102EB00029D59EA5061229D5C5A5061229D5E4A5B2
:102EC000061229D54CA6061229D5F69F061229D539
:102ED0000FA0061229D51BA0061229D52FA0061275
:102EE00029D54DA0061229D557A0061229D561A0D3
:102EF000061229D574A0061229D505A1061229D5D6
:102F000074A1061229D5A8A1061229D5F6A1061288
:102F100029D543A2061229D55EA2061229D568A298
:102F2000061229D58EA2061229D5F3A2061229D59A
:102F300008BA061229D52ABA061229D5B8BA061235
:102F400029D5D07F001229D5BCD1051229D5E6D1CB
:102F5000051229D503D2051229D516D2051229D575
:102F60002CD2051229D58AD2051229D5BDD2051237
:102F700029D5B2D6051229D512D8051229D545D89A
:102F8000051229D58FD8051229D505DA051229D5BC
:102F90002DDA051229D542DA051229D552DA0512A1
:102FA00029D596DA051229D5F1DA051229D501DBE2
:102FB000051229D5BBB4061229D5D5B4061229D5D8
:102FC000FDB4061229D516B5061229D53AB5061252
:102FD00029D558B5061229D56FB5061229D59DB544
:102FE000061229D5B8B5061229D56FBC061229D507
:102FF000B5BC061229D54599061229D55599061250
:1030000029D55C9A061229D5909A061229D5B29A2A
:10301000061229D5D59A061229D5F39A061229D572
:103020002D9B061229D5969B061229D5D89B0612F0
:1030300029D5179C061229D5489C061229D57F9CB4
:10304000061229D5D58D061229D53A8E061229D514
:10305000E08E061229D5178F061229D571F20412B7
:1030600029D508F3041229D535F5041229D520F8FD
:10307000041229D5AEF9041229D51AFA041229D559
:1030800069FD041229D5B4FE041229D5DBFE031212
:1030900029D526FF031229D59EF0051229D544F320
:1030A000051229D5E9F3051229D515F4051229D5FC
:1030B00043F4051229D578F4051229D5A0F4051298
:1030C00029D500F5051229D5CCBA051229D5B1BEEE
:1030D000051229D599C0051229D5C2C1051229D5D5
:1030E000A2C2051229D550C4051229D5FAC5051268
:1030F00029D5CAC6051229D51EC7051229D551AA38
:10310000061229D55BAA061229D57CAA061229D552
:10311000A493051229D5B998051229D5279A051225
:1031200029D5E39B051229D5E09C051229D5109ECF
:10313000051229D5289F051229D508A0051229D5E1
:10314000E9BA041229D521BB041229D525C50412D8
:1031500029D506C6041229D552C7041229D59BC801
:10316000041229D551C9041229D525CA041229D51A
:103170000CCB041229D5F4CB041229D596CC041219
:1031800029D5C0CC041229D570CE041229D5E0CEA1
:10319000041229D5F9CE041229D550D0041229D50C
:1031A00001D1041229D583D1041229D52FD20412BA
:1031B00029D59FD2041229D53BD3041229D5B7D3E0
:1031C000041229D5D5D3041229D5D7D4041229D570
:1031D0008DD5041229D533D6041229D58AB006120A
:1031E00029D5B4B0061229D5C8B1061229D5CBB15C
:1031F000061229D523BD061229D576BD061229D57A
:10320000B8BD061229D5C8BD061229D51FEA051278
:1032100029D55DEA051229D5C6EA051229D5E3EAC2
:10322000051229D5FCEA051229D5AEEB051229D5E0
:10323000B7EB051229D5FCEB051229D532EC0512A6
:1032400029D549EC051229D5BBEC051229D548ED45
:10325000051229D57EED051229D5D5ED051229D502
:1032600039EE051229D55CEE051229D5C0EE0512FE
:1032700029D51CEF051229D557EF051229D58CEF5A
:10328000051229D59EEF051229D5B0EF051229D5D3
:10329000E8EF051229D534F0051229D572F0051290
:1032A00029D50080061229D54081061229D56381CF
:1032B000061229D57481061229D56983061229D5EB
:1032C0008983061229D510A8061229D546A8061208
:1032D00029D58EA8061229D5EAA9061229D500807B
:1032E000051229D53181051229D56B81051229D501
:1032F0002A83051229D55483051229D5E1850512A3
:1033000029D52186051229D5B887051229D54B88DC
:10331000051229D5A388051229D54689051229D574
:103320007E89051229D5C089051229D52F8B051252
:1033300029D5818C051229D5A48E051229D5D28EC6
:10334000051229D5F98E051229D5028F051229D526
:10335000528F051229D5E48F051229D5D492051272
:1033600029D55793051229D5D2BD061229D5E8BD16
:10337000061229D5F2BD061229D54CBE061229D552
:103380007389061229D58989061229D52E8A061233
:1033900029D56D8A061229D58A8A061229D5BB8AB3
:1033A000061229D5088B061229D53B8B061229D582
:1033B000768B061229D5628D061229D5C38D061289
:1033C00029D5EBB5061229D540B6061229D59AB6ED
:1033D000061229D508B7061229D57AB7061229D5BB
:1033E000B8B7061229D5F9B7061229D531DB05126F
:1033F00029D537DB051229D577DB051229D569DDFB
:10340000051229D599DD051229D508DE051229D521
:10341000D6DE051229D517DF051229D545DF05129D
:1034200029D5CFDF051229D5E6DF051229D5F3DF2F
:10343000051229D5FDDF051229D599E1051229D5F7
:103440008EE2051229D5D7E2051229D58EF7011291
:1034500029D5A4F7011229D537F8011229D563F926
:10346000011229D558FA011229D5F5FA011229D5E8
:1034700035FB011229D5B3FB011229D510FC01122D
:1034800029D520FC011229D547FC011229D59AFC27
:10349000011229D50BFE011229D510FE011229D5E2
:1034A00030FE011229D5FFDA021229D557DB0212AC
:1034B00029D5FEDB021229D573DD021229D54DDE96
:1034C000021229D50ADF021229D521DF021229D5DD
:1034D00070DF021229D5D4DF021229D529E00212A9
:1034E00029D53CE0021229D59DE0021229D5F6E04B
:1034F000021229D58AE3021229D58EE4021229D5B7
:10350000C9E4021229D51DE5021229D5C4E7021229
:1035100029D50AE8021229D57DE8021229D5C7E883
:10352000021229D59BE9021229D5DEE9021229D51A
:10353000F8E9021229D53FEA021229D555EA02120A
:1035400029D5FAEA021229D5DEEB021229D5E9EBD8
:10355000021229D537EC021229D58CEC021229D59A
:10356000D3EC021229D537EE021229D552EE0212FF
:1035700029D5D7F0021229D505F1021229D504F276
:10358000021229D528F2021229D597F2021229D562
:103590005AF3021229D595F3021229D5FBF3021230
:1035A00029D510F5021229D558F5021229D56BF547
:1035B000021229D56EF5021229D577F5021229D506
:1035C00089F5021229D512F6021229D53BF602120C
:1035D00029D54EF6021229D57AF6021229D5A1F67E
:1035E000021229D5C5F6021229D53EF7021229D5B5
:1035F000B0F7021229D5E7F7021229D5F1F7021226
:1036000029D520F8021229D536F8021229D551F809
:10361000021229D57FF8021229D59FF8021229D566
:10362000E8F8021229D523F9021229D52AFA021242
:1036300029D588FB021229D59EFB021229D5B5FB9C
:10364000021229D5C7FB021229D51DB9061229D5A8
:103650002EB9061229D5B7B9061229D5B3F5051228
:1036600029D5F1F5051229D57DF6051229D588F75A
:10367000051229D5A4F9051229D521FA051229D553
:1036800014E3051229D563E3051229D503E50512D4
:1036900029D5D7E6051229D519E7051229D5E4E77A
:1036A000051229D5ECE8051229D50EE9051229D510
:1036B0006AE9051229D5EBE9051229D5824F0012D6
:1036C00029D5A44F001229D5FC50001229D5455107
:1036D000001229D5BB51001229D53952001229D523
:1036E0009E52001229D5E052001229D54F530012E4
:1036F00029D5FA53001229D57254001229D5B7548E
:10370000001229D5C658001229D5CD5A001229D544
:10371000005B001229D5525B001229D5555E0012BC
:1037200029D5D15E001229D57F60001229D5B1615B
:10373000001229D5C962001229D54B63001229D580
:103740002B64001229D59664001229D5AA640012B0
:1037500029D58C65001229D5BC66001229D5D768F9
:10376000001229D5D06A001229D5B36B001229D5D1
:10377000496E001229D5EA6E001229D5EA6F0012AF
:1037800029D54C73001229D55C73001229D5A27477
:10379000001229D53F75001229D56976001229D566
:1037A000FA76001229D52778001229D56C780012F4
:1037B00029D50079001229D5DAD6041229D57AD76D
:1037C000041229D5E4D7041229D5FDD7041229D52E
:1037D0008CD8041229D5D0D8041229D5EFD90412D7
:1037E00029D52BDA041229D59EDA041229D5E9DA73
:1037F000041229D548DB041229D5F2DB041229D59D
:10380000DBDE041229D5F8DF041229D575E0041295
:1038100029D536E2041229D5D6E2041229D575E35A
:10382000041229D5D8E3041229D54DE4041229D570
:103830005CE5041229D53DE6041229D573E604128D
:1038400029D5A6E6041229D55AE7041229D586E718
:10385000041229D501E8041229D584E9041229D5D6
:10386000FFEA041229D554EC041229D5C7ED04123D
:1038700029D5D3EE041229D57AEF041229D5E8EF21
:10388000041229D500F1041229D5ACDA031229D586
:1038900017DB031229D55FDB031229D5A3DB031243
:1038A00029D50DDC031229D556DC031229D591DC6C
:1038B000031229D52BDD031229D585DD031229D565
:1038C000DFDE031229D568DF031229D592DF031248
:1038D00029D597E0031229D5A6E1031229D5D8E10D
:1038E000031229D5C8E2031229D5D9E2031229D53A
:1038F000F1E2031229D5F1E3031229D50EE40312F4
:1039000029D5D3E4031229D5FDE4031229D514E502
:10391000031229D53AE5031229D571E5031229D5F9
:1039200091E5031229D5B8E5031229D5D0E5031294
:1039300029D5AAE6031229D502E7031229D578E88A
:10394000031229D507E9031229D52BE9031229D53A
:1039500042E9031229D50DEA031229D5B0EA031270
:1039600029D5D6EA031229D506EC031229D525EC70
:10397000031229D5A6EC031229D513ED031229D57C
:1039800057ED031229D5E5ED031229D550EE0312A8
:1039900029D502EF031229D5F2F0031229D5CAF175
:1039A000031229D51CF2031229D516F3031229D5C7
:1039B00023F4031229D534F5031229D542F5031255
:1039C00029D512F6031229D5B2F6031229D5F6F637
:1039D000031229D50BF7031229D50BF8031229D5A9
:1039E000AEF8031229D506F9031229D5BE910612A5
:1039F00029D56693061229D52C94061229D58194CF
:103A0000061229D5FE94061229D5F9FB021229D5F2
:103A100017FC021229D55BFC021229D581FC021287
:103A200029D5A7FC021229D5BFFC021229D5D7FC43
:103A3000021229D5EFFC021229D55AFD021229D50E
:103A40009CFD021229D5B1FD021229D5B8FE021241
:103A500029D5D3FE021229D5DCFE021229D5E5FEB6
:103A6000021229D5EEFE021229D5F8FE021229D53E
:103A700075FF021229D5CF84061229D5EB880612CC
:103A800029D59EB8061229D50C89061229D510AF62
:103A9000061229D59295061229D5A895061229D580
:103AA0004197061229D58A97061229D5F69706124C
:103AB00029D5E598061229D51499061229D52699F3
:103AC000061229D560B3061229D5D79C061229D52E
:103AD000339D061229D5739D061229D5679E0612BD
:103AE00029D58B9E061229D5A77F001229D5C09E05
:103AF000061229D5F79E061229D5089F061229D548
:103B00001F9F061229D5449F061229D5D39F06125E
:103B100029D57B7F001229D50080021229D5578034
:103B2000021229D5C380021229D54F81021229D54C
:103B30000582021229D54D82021229D5668202120F
:103B400029D58982021229D5AB82021229D5E982B0
:103B5000021229D53883021229D56383021229D58E
:103B6000C183021229D56884021229D51085021258
:103B700029D58C85021229D55986021229D5A0860D
:103B8000021229D5EC86021229D57487021229D592
:103B9000AD87021229D50388021229D51F88021287
:103BA00029D54E88021229D55A8A021229D5888B26
:103BB000021229D5B48B021229D5E88B021229D51D
:103BC000098C021229D5188C021229D5238C0212D5
:103BD00029D5D28C021229D5428D021229D5CD8D3C
:103BE000021229D5D58D021229D5428E021229D56D
:103BF0007E8E021229D5448F021229D51790021207
:103C000029D56C90021229D50B91021229D5659104
:103C1000021229D5AA91021229D54394021229D55C
:103C20008695021229D57098021229D5549902124C
:103C300029D5389A021229D55D9A021229D56E9A91
:103C4000021229D5E09A021229D5779B021229D5B2
:103C5000EB9B021229D5DB9C021229D5009D021292
:103C600029D5189E021229D5369E021229D5529EB8
:103C7000021229D5C59E021229D5D49E021229D539
:103C80005C9F021229D559A0021229D566A0021202
:103C900029D56FA0021229D551A2021229D57DA3E0
:103CA000021229D58DA3021229D5C8A4021229D542
:103CB00047A5021229D578A6021229D5B4A6021268
:103CC00029D58EA8021229D54BAC021229D55FAC9A
:103CD000021229D569AC021229D573AC021229D57A
:103CE0007DAC021229D587AC021229D5A0AC0212F4
:103CF00029D5AAAC021229D521AD021229D52CADA5
:103D0000021229D55BAD021229D583AD021229D545
:103D10008EAD021229D5F3AD021229D5FDAD0212E6
:103D200029D508AE021229D52CAE021229D550AEE3
:103D3000021229D5C2AE021229D50BAF021229D523
:103D400027AF021229D598AF021229D5E4AF02128B
:103D500029D52DB0021229D56BB0021229D5ECB0AD
:103D6000021229D593B1021229D558B3021229D5CE
:103D7000BDB3021229D5EBB4021229D511B5021236
:103D800029D559B6021229D593B9021229D591BB6A
:103D9000021229D55CBD021229D5F5BD021229D522
:103DA000F6BF021229D5ABC0021229D5E4C0021217
:103DB00029D554C1021229D55EC1021229D587C363
:103DC000021229D58AC4021229D5C7C5021229D5E3
:103DD0001EC6021229D5C9C6021229D579C80212F7
:103DE00029D5C6C9021229D5E6C9021229D53BCA6E
:103DF000021229D53CCB021229D564CB021229D557
:103E0000C3CB021229D5BBCC021229D532CD021266
:103E100029D545CE021229D5B3CE021229D5B2CF6B
:103E2000021229D50CD2021229D535D2021229D577
:103E30009BD3021229D51DD5021229D574D50212A1
:103E400029D522D6021229D5C7D6021229D52AD7BA
:103E5000021229D5E8D7021229D57AD8021229D51B
:103E6000D9D8021229D51BD9021229D54CD9021250
:103E700029D5A3DA021229D50080031229D5328070
:103E8000031229D56B80031229D53482031229D558
:103E90007882031229D54E83031229D5AD830312EC
:103EA00029D5C384031229D50F85031229D59D87EF
:103EB000031229D5818A031229D5C88B031229D56B
:103EC000608C031229D56C8C031229D5B58C031292
:103ED00029D5F78D031229D5ED8E031229D5178F19
:103EE000031229D56D8F031229D5C68F031229D548
:103EF0003990031229D56F92031229D5F193031239
:103F000029D5DC94031229D52696031229D55E986B
:103F1000031229D55B9B031229D56A9B031229D56D
:103F2000FE9B031229D5A99C031229D5EC9C0312F0
:103F300029D5359D031229D5859D031229D5E99DE3
:103F4000031229D55B9E031229D5779E031229D52A
:103F5000A69E031229D5E59E031229D5E09F0312E0
:103F600029D58FA0031229D50CA3031229D53EA46D
:103F7000031229D516A5031229D598A5031229D510
:103F8000CDA9031229D5FCA9031229D557AA0312DA
:103F900029D58AAA031229D502AB031229D535AB3C
:103FA000031229D596AB031229D5E6AB031229D506
:103FB000B3AC031229D56CAD031229D530AE031270
:103FC00029D5AAB0031229D50CB2031229D55DB3A5
:103FD000031229D581B4031229D584B4031229D53B
:103FE000B3B4031229D5ABB6031229D56AB70312AD
:103FF00029D599B7031229D5B7B8031229D57FB9A6
:10400000031229D540BB031229D5B0BB031229D511
:10401000E2BB031229D502BC031229D571BC0312DD
:1040200029D56ABD031229D58EBD031229D501BE3B
:10403000031229D52AC0031229D589C0031229D514
:10404000DDC0031229D50CC3031229D5EFC3031217
:1040500029D577C4031229D55BC5031229D5E5C537
:10406000031229D5F9C5031229D50DC6031229D586
:1040700021C6031229D535C6031229D562C60312FB
:1040800029D592C6031229D54DC8031229D523C9B3
:10409000031229D5C7C9031229D51CCA031229D571
:1040A0007FCA031229D5C8CA031229D5EFCA031241
:1040B00029D5B7CB031229D55DCC031229D5E3CD81
:1040C000031229D56ECE031229D5B5CE031229D5F8
:1040D00027CF031229D57CD0031229D525D103126D
:1040E00029D559D1031229D571D1031229D514D25A
:1040F000031229D590D4031229D538D6031229D515
:1041000056D6031229D574D6031229D540D70312E7
:1041100029D58EDA031229D54B81011229D58D813B
:10412000011229D5FA86011229D54687011229D50F
:104130008C87011229D5DD88011229D54289011207
:1041400029D58689011229D5EC8A011229D5478EF5
:10415000011229D57A8F011229D5099B011229D57F
:10416000999B011229D5839E011229D5E89F01123E
:1041700029D54BA0011229D567A1011229D5D1A2B9
:10418000011229D5B0A3011229D51EA6011229D5E5
:10419000B0A7011229D541A8011229D560A90112A1
:1041A00029D5EDA9011229D5F7A9011229D51FAAF0
:1041B000011229D5C2AA011229D5ADAB011229D508
:1041C00075AC011229D502AD011229D518AD011225
:1041D00029D535AD011229D55EAD011229D58BAD9A
:1041E000011229D5CFAF011229D5A2B0011229D5CC
:1041F000E6B0011229D568B1011229D509B2011220
:1042000029D53BB2011229D582B2011229D5B5B206
:10421000011229D5F9B2011229D548B3011229D5C5
:104220004DB3011229D5A9B3011229D5EDB301125D
:1042300029D5D7B4011229D53CB5011229D59AB593
:10424000011229D519B6011229D591B9011229D522
:1042500094BA011229D52ABC011229D56DBF0112C9
:1042600029D50FC0011229D558C2011229D513C36F
:10427000011229D552C3011229D516C5011229D51B
:1042800033C5011229D53CC5011229D545C50112F6
:1042900029D550C5011229D56FC5011229D593C75B
:1042A000011229D5F0C7011229D5FAC7011229D563
:1042B00004C8011229D567C8011229D5C3C8011243
:1042C00029D5D0C9011229D531CA011229D542CB2D
:1042D000011229D58BCB011229D555CC011229D534
:1042E0006CCD011229D530CE011229D57CCF011217
:1042F00029D580D0011229D579D1011229D591D1A2
:10430000011229D5C8D1011229D5D2D1011229D53E
:10431000DCD1011229D5E7D1011229D505D201122C
:1043200029D54DD2011229D5ABD2011229D5D2D22D
:10433000011229D5E4D2011229D58DD3011229D534
:10434000C6D3011229D5F7D4011229D554D50112AB
:1043500029D545D6011229D57BD6011229D5EBD610
:10436000011229D567D7011229D5E8D8011229D51C
:104370000FDA011229D5D1DA011229D59FDB0112FA
:1043800029D524DC011229D5D3DC011229D5BBDDC6
:10439000011229D554DE011229D530DF011229D5A9
:1043A00098DF011229D557E0011229D5B3E0011297
:1043B00029D517E1011229D5DDE1011229D500E245
:1043C000011229D5BAE2011229D5DCE2011229D560
:1043D0003DE3011229D56DE5011229D566E60112EA
:1043E00029D512E7011229D52FE9011229D578E93B
:1043F000011229D5C3E9011229D51FEA011229D5D5
:104400007DEA011229D5A1EA011229D5C5EA0112D6
:1044100029D5FAEA011229D522EB011229D567EB39
:10442000011229D5C5EB011229D51EEC011229D59F
:1044300018ED011229D5C4EE011229D509EF011298
:1044400029D532EF011229D5BBEF011229D52EF063
:10445000011229D53CF0011229D560F0011229D5AD
:10446000B6F0011229D5D1F0011229D58CF1011233
:1044700029D5B8F1011229D5FBF1011229D55EF237
:10448000011229D56EF4011229D59AF4011229D509
:1044900055F5011229D539F6011229D5CDF60112AB
:1044A00029D53CC7051229D574C7051229D595C74A
:1044B000051229D5D7C7051229D53BC8051229D51C
:1044C00045C8051229D555C8051229D58CC805122D
:1044D00029D535CC051229D5FDCD051229D5E1CF39
:1044E000051229D583D0051229D50DD1051229D55C
:1044F0005080041229D5F980041229D5D8810412DC
:1045000029D5E482041229D50483041229D52684EE
:10451000041229D5D685041229D54386041229D53B
:104520001487041229D51A88041229D592880412F6
:1045300029D5CD88041229D52689041229D5618967
:10454000041229D5AA89041229D53E8A041229D534
:10455000D48A041229D5A98B041229D57C8C041283
:1045600029D50A8D041229D5308D041229D55D8DE7
:10457000041229D58E8D041229D55B8E041229D5FB
:104580006B8E041229D5BE8E041229D5CB8E04124F
:1045900029D5D88E041229D5E18E041229D5458F4C
:1045A000041229D5A38F041229D5EE8F041229D520
:1045B0000990041229D53090041229D54D90041287
:1045C00029D55990041229D5EA91041229D50392CC
:1045D000041229D57F92041229D59292041229D56A
:1045E000A292041229D54693041229D5B29404123A
:1045F00029D5C595041229D56596041229D56F963B
:10460000041229D5EE96041229D5FF96041229D555
:104610003E97041229D56C97041229D539980412B3
:1046200029D59098041229D5C998041229D51F9923
:10463000041229D53D99041229D58B99041229D544
:10464000569A041229D5A49A041229D5F19A041273
:1046500029D5749B041229D59E9B041229D5D49B7D
:10466000041229D5E39B041229D5429C041229D5B2
:10467000BA9C041229D5FB9C041229D54B9D041227
:1046800029D5769D041229D5909D041229D5AA9D7D
:10469000041229D57F9E041229D5899E041229D59A
:1046A000C49E041229D5D49E041229D5DD9E04127D
:1046B00029D52E9F041229D5429F041229D564A022
:1046C000041229D577A0041229D58EA0041229D569
:1046D000A3A0041229D536A1041229D5AAA1041237
:1046E00029D54FA2041229D55AA2041229D5BDA357
:1046F000041229D5D9A3041229D525A4041229D539
:1047000093A4041229D5C5A4041229D5DFA4041248
:1047100029D53FA5041229D5DEA5041229D529A63D
:10472000041229D57CA8041229D514A9041229D56C
:104730008BA9041229D5E8AB041229D500AC0412C8
:1047400029D503AC041229D50FAC041229D523AC0A
:10475000041229D52BAC041229D562AC041229D538
:1047600056AD041229D5E0AD041229D562AE04126B
:1047700029D5E2AE041229D5B9AF041229D5DBAF91
:10478000041229D574B0041229D5D1B0041229D548
:10479000D4B0041229D501B1041229D516B10412DE
:1047A00029D585B1041229D5D1B2041229D5E4B393
:1047B000041229D56FB4041229D582B5041229D563
:1047C00049B6041229D57AB6041229D5A0B6041226
:1047D00029D5A9B6041229D5D8B6041229D588B787
:1047E000041229D538B8041229D5ABB8041229D53A
:1047F0004EB9041229D5C1B9041229D500BA041240
:1048000029D549BA041229D57EBA041229D51BB874
:10481000061229D55FBC061229D5CEBB061229D5B2
:10482000B9BB061229D5A9BB061229D597FF0512D7
:1048300029D5EA7F001229D591BB061229D5F3BAF2
:10484000061229D5E2BA061229D50CAD051229D5D2
:1048500059AC051229D58DAB051229D5E9A9051248
:1048600029D5B2A9051229D584A9051229D531A9BE
:10487000051229D588A8051229D5F0A7051229D532
:10488000CAA7051229D57FA7051229D553A7051256
:1048900029D5C7A6051229D566A6051229D58FAE3A
:1048A000061229D521A6051229D50BAE061229D547
:1048B000A3AC061229D581AC061229D5F87F0012C7
:1048C00029D5F8FF041229D5F5FF041229D5F2FFE6
:1048D000041229D5E2FF041229D53CA5051229D5D9
:1048E0005AA4051229D502A4051229D572A30512CE
:1048F00029D5ED7F001229D52DA3051229D511A3A5
:10490000051229D5BFA1051229D581A1051229D5E6
:10491000A09E061229D55BA1051229D504B906125D
:1049200029D5DFA0051229D595BA051229D54EBA89
:10493000051229D5EDB9051229D5C0B9051229D519
:1049400096B9051229D562B9051229D53AB90512C9
:1049500029D5DAB8051229D5C4B8051229D589B8E0
:10496000051229D500B8051229D547B4051229D555
:1049700005B2051229D5CAAF051229D54CAF0512CB
:1049800029D5FDAE051229D5EDAD051229D58AAE82
:10499000051229D54BAE051229D50789060000005E
:1049A00080FBE4738F000100131B87000100121BC2
:1049B00035000400991E250002009D1E26000200FD
:1049C0009F1E27000200A11E28000100AB1E290027
:1049D0000100AC1E84000400AD1E86000100B11E63
:1049E0002A000100B21E2B000100B31E2C000100A2
:1049F000B71E2D000800F41A2E000100B81E2F006B
:104A00000100B91E30000100BA1E31000100BB1EBA
:104A100032000100FC1A33000100FD1A34000100CD
:104A2000BC1E36000100FE1A38000100BD1E390010
:104A30000100B61E83000200D11E630001000F1B9F
:104A400064000100B41E65000100B51E6D00010088
:104A5000101B71000800EC1A66000100D01E430014
:104A60000100C11E44000200C21E45000100C41E18
:104A700046000200C51E47000800071B4800010051
:104A8000C71E4B000100C81E04000100D31EA10078
:104A90000100D61E37000100D51E88000100D41E7B
:104AA0003C000100FF1A3D000100BE1E490002004B
:104AB000C91E67000100111B4D000200CB1E4E00F5
:104AC0000100CD1E4F000200CE1E3E000100061B5D
:104AD00051000100001B52000100BF1E53000100E5
:104AE000C01E54000100011B000000000000000176
:104AF0003636010100010201000103010001040139
:104B0000060605020000070100340801000F090431
:104B100001010D0100FF0E0800001702000019013D
:104B200000FF1A0100011B0100FE1C0100081D020C
:104B300000001F01000120010001210200002301EB
:104B4000000F2402000026010001270100082802AE
:104B500000FF2A0100072B0102402C0100002D015B
:104B600000012E0100012F0100FF30010B1D310853
:104B700000003A0100083B01000F3C0100013D012B
:104B800000FF3E04000042040000460400004A0406
:104B900000004E04000052040000560400005A04B5
:104BA0000000010371030103010301030103010379
:104BB00022030203010310030003000300030003A8
:104BC0000003000300034203000324030603000361
:104BD0000003040312032503230325032303040313
:104BE0000403000300030003440300030003230342
:104BF000000365032100350381030003050300035F
:104C000000030003000325032303010171010101D7
:104C100001011101010131010101010180011001B6
:104C200061013B00140063017301720162014301E1
:104C30000001130106013D013500040112010001CC
:104C400000010001000104010401330133013C01B2
:104C50004401320136000001000165010001350008
:104C6000810100010501820183010001030271023B
:104C7000300160021102700201020202020280028F
:104C8000100261023A004100630273027202620282
:104C90004302000213023800000200020402120262
:104CA0000002000200020002040204023700370082
:104CB0003C024402000239000002000265020002C8
:104CC000350281020002050282028302000203040F
:104CD000710402046004110470040204020401045B
:104CE00002041004610400041404630473047204D5
:104CF00062044304000413040604000400040404D2
:104D000012040004000400040004510464000004C0
:104D100000040004440400040004000400046504CA
:104D200000043504810464000504000483040004C5
:104D30000300710030016000110070003102200397
:104D40005004800010006100000014006300730034
:104D50007200620043000000130006000000000023
:104D60000400120000000000000000000400040025
:104D7000370037003C024400000000000000000043
:104D80006500000035008100000005000000830080
:104D9000000036000100060000000F0000000000C7
:104DA000000000000000000003FFFF00000403FFFC
:104DB000FF0000FFFF0FF4010005C4040320000101
:104DC00000000B000000000000000003010F0000C5
:104DD00000000000000000000000000000000000D3
:104DE00000000000000000000000000000000000C3
:104DF0000000F737130055371F005B371F806137FE
:104E00000100F7370200DD360300E3360400E9361F
:104E10000500EF360600FB36300019373100133736
:104E20003200253733002B37350031373400373720
:104E300036003D371100493714004F3715000D3744
:104E4000FFFF00000A000000020000000400000054
:104E500008000000100000002000000040000000DA
:104E600080000000000100000002000000040000BB
:104E700000080000001000000020000000400000BA
:104E8000015D41069341088D410BAB4110273E0A5D
:104E9000BD410263410581410769410C45410D5106
:104EA0004164FF3BFF000007ECFDFDFDECDCDCCCCA
:104EB000BCACAC9C9C8C7C7C6C6C5C5C5C4C4C3C62
:104EC0003C2C2C1C1C00160F00000B150B020002C2
:104ED000220F3300000E01030507090B0D0F00021E
:104EE0000406080A0C0D5A6967426565416C6C69D5
:104EF000616E63653039140AE5D5C5B5A5A59585FC
:104F00008575650001191618161618230300303030
:104F100016181920231A1C1E30303017181921308A
:104F20001B1D1F3000393D3F373C3C362C442D00C3
:104F3000034A49434E181A2505020C0E020B040BB6
:104F40000A0708000F020402010101010902E80337
:104F5000000000BE040AA74E00000000F64E0E003E
:104F6000FA067F00E8031E1E08050C04040010105A
:104F70002809080903010C0305083D0300FF0A0C7A
:104F80000400C082C083901A6AE4F0A3F07C437DE1
:104F90001C7A837B191233E3123C2F123E75123CAC
:104FA000350264A374F512243E74F5122AD1E9FF88
:104FB0008A08EBFE8C09E9705B74026A703E79081E
:104FC00012362F750A00780A122A2EE509F50A789A
:104FD0000A122A2EEEF50A780A122A2E90199F122A
:104FE0002851901EB1E0F97C077D1B901ED1126301
:104FF00047123C597407122A3D0250CB74016A6073
:10500000030250D0790812362F7B00EEFAF9123CD9
:105010009B0250CB74016F600874026F60030250F2
:10502000D0EA600574036A7047790212362F901E29
:10503000B1E0F990199F122CCC123C47E9F8901975
:10504000AEE0A2E34010E9700D901A6EE004F06447
:105050000470031250EA740365087071901A6FE0CF
:10506000F9740129F0E9C3940540621250EA805DA9
:1050700074016A705B74016F790A702E12362F7496
:1050800001122CFBE4F07402122CFB7403F00412E6
:105090002CFBE4F0A3F0A3F0A3F07408122CFBE4C3
:1050A000F0AA18AB1912416F803612362F901EA746
:1050B0001228517A007B20125A9C122A3D901EB170
:1050C000E0F990199F122CCC123C7DE9F8E86010B1
:1050D0009080B61228517A017B00125A9C122A3D08
:1050E000740B122A3D7F030226CD90199FE4F0A392
:1050F00074F8F0A374FFF0A37407F02274F612247E
:105100003EE9FFEAFE7AD1F912324B8A828B83E5BF
:10511000824583702A7A027B0012322DEA4B700E90
:105120007A107B009019A3E0F912326F80148A8202
:105130008B8374D1F0EFA3F0EEF91232398003EFD4
:10514000A3F002534A74F712243E89089004D11246
:10515000764AFF901E94E0F47003A3E0F47031905F
:1051600009C0E0901E94F0A3E4F080248E828F8327
:10517000A31261AB600F8E828F83A3A31261A8FA82
:10518000A9081236C58E828F83126071E8FEE9FF8E
:10519000EE4F70D8901E94E0F47003A3E0F4600A20
:1051A000901E94E0FAA9081236C512427D90196D3E
:1051B0001258C01242777F010226CD74F012243EAD
:1051C000890B8C0C7509007508007410122CFB12E9
:1051D00060717412122CFB1268BBFD80471252855D
:1051E000F50EA3E0F50FAE08EE2EFEE433FFEA2E37
:1051F000F582EB126552650E7004A3E0650F70191D
:10520000AE09EE2EFEE433FFEC2EF582ED3FF58382
:10521000E50EF0A3E50FF00509050AE50AC3950CB4
:1052200040BB0508E508C3950B5005750A0080EBE7
:10523000A90980007F080226CD74F412243E890B50
:105240007D00740C122CFB12607180010DEDC39572
:105250000B502E750A008002050AE50AC39C50EC2B
:10526000ED25E0FEE433FFEA2EF582EB3F126AB44F
:1052700012528565087004A3E0650970DB7901802E
:105280000279008014AE0AEE2EFEE433FFE82EF51C
:1052900082E9125A8622122A3D7F040226CD74F634
:1052A00012243E1253347003A3E06D70177508ACDE
:1052B0007509197808122A2AEEFA1237FD740212BB
:1052C0002A3D801A7508027509807808122A2A8AF0
:1052D0000889097808122A2A125322122A3D806A64
:1052E00074F612243E1253347003A3E06D701775E8
:1052F00008B97509197808122A2AEEFA12380374C7
:1053000002122A3D801A7508037509807808122A4E
:105310002A8A0889097808122A2A125322122A3D59
:105320008028EE240E125A83FD7C8012655A1238B2
:1053300021740422EAFEEBFF126571FCE439FD9052
:10534000196DE06C227402122A3D7F020226CD7490
:10535000F612243E74FE122AD1EAFEEBFF85188273
:10536000851983E41253F31266ACFBECFA88828948
:1053700083A3A3E0F9750900750800600574FF694F
:105380007005750882803E90196DE06A7003A3E095
:105390006B701BAA18AB1912494FE9FA8518828560
:1053A00019831268C670037508838A098017901BD9
:1053B00012E06004640170057508818008E06402F1
:1053C00070037508808518828519831268BBFDA952
:1053D00008EEFAEFFB123809E5096014851882859A
:1053E00019831268C66009851882851983126EE3D5
:1053F000025345F0A3F01275232274F212243EEA00
:10540000FEEBFF75080075090012656DF50AE439B9
:10541000F50B12427DEA650A7003EB650B70121200
:10542000493DE914F50879017A367B1A124937802B
:1054300003750980EE240E12654FF50C780C122AC4
:105440002E750C36750D1A780C122A2A7808122A35
:105450002E780A122A2AE509F5087808122A2E124F
:10546000633612654FF97A057B8012380F74070294
:10547000778874F612243EE9FF7E0080328A828BA0
:1054800083E0F508A3E0F8E4C8F9E50828E439F575
:1054900009EE25E0F8E433F9EC28F582ED39F583DF
:1054A000E508F0A3E509F0EA2402FA50010B0EEE3C
:1054B000C39F40C902534A74E812243E74FC122A66
:1054C000D18A168B177511007402122CFBE4F0A31D
:1054D0001266B41253F33517125A94F50B850A82EB
:1054E000F5831278EEFEE439FF850A82850B83A3EB
:1054F000A3E0FA850A82850B83A3A3A3E0F9EAF56A
:1055000008E439F509EEFAEFFB124319E96401608A
:1055100016EEFAEFFB124319E9703890196DE06E40
:105520007003A3E06F602C12728A122A2EE4F50831
:10553000F5097808122A2A7808122A2E90196D1275
:1055400028557508807808122A2E12588E122A3D86
:1055500002586D850A82850B83A3A3A3A3E0F510EF
:10556000E50A2405F50A5002050BE51060281277BC
:10557000FF7402122CFB1258C07402122CFB12682A
:10558000C660137402122CFB125884A9101236F54F
:105590008A0A8B0B8003751000850A82850B8312A3
:1055A000779960241277FF851882851983EAF0A322
:1055B000EB1268CCE849601085188285198312586F
:1055C00084A90F1236F58003750F009004D1805224
:1055D000850A82850B83A3A3A3A3A3A3A3A3E4F0BB
:1055E000A3F0AA0AAB0B851482851583A3A3E0F868
:1055F0001261A8F9123239851282851383E0C0E066
:10560000A811743628F582E4341AF583D0E0F00549
:1056100011A2005007AA12AB131232D5851482854D
:105620001583E0F514A3E0F515E5144515700302A4
:1056300057EA851482851583A31261AB60DE851459
:1056400082851583A3A3A3A3A3A3A3A3E0A2E050F1
:10565000CB851482851583A3A3A3A31268C68514E2
:1056600082851583A3A3601E1261ACFA79018514AB
:1056700082851583A3A3A3A31258771249A28A1285
:105680008B13D200800F125877A3A3A3E0F512A3C7
:10569000E0F513C200E5124513700302561185129E
:1056A00082851383A3E065087004A3E06509600F99
:1056B00074FF6508700474FF650960030256118564
:1056C0001282851383A3A3A3A3A3A3A312285585A2
:1056D0001282851383A3A3A3A3A3A3E0FC740412E3
:1056E0002CFB126347A9101236D77402122A3DE927
:1056F000703C851282851383A3A3A3A3A3A3A3A3B2
:10570000A3A3122855851282851383A3A3A3A3A361
:10571000A3A3A3A3E0FC7402122CFB126347A90FFE
:105720001236D77402122A3DE97003025611E50FB2
:105730002510C333240AFA7B0012322D8A0A8B0B00
:10574000EA4B70030255F78A828B8374D2126ABEC9
:105750008A828B83A3A3E8F0A3E9127768A3E510FC
:105760001278F8E50FF0E510602CEA240AFAE43527
:105770000BFB850A82850B831258BB7402122CFB2B
:105780001258AE122A26AC10EC2CFCE433FD126F3A
:10579000BC122A3D800D8A828B83A3A3A3A3A3E41A
:1057A000F0A3F0E50F70030255D0A810E828F8E444
:1057B00033F9E50A28F8E50B39F9E8240AFAE4395F
:1057C000FB850A82850B83A3A3A31258BB8518828D
:1057D0008519831258AE122A26AC0FEC2CFCE43348
:1057E000FD126FBC122A3D0255E2E51160251272CE
:1057F0008A122A2E75083675091A7808122A2AE59F
:1058000011F5087808122A2E90196D12285575087E
:10581000008029EEFAEFFB124319E9702A12728A0E
:10582000122A2E75083675091A7808122A2A750860
:10583000007808122A2E90196D1228557808122A1D
:105840002E12588E122A3D7402122CFB1268C6606A
:10585000087402122CFB126EE385188285198312DC
:1058600068C66009851882851983126EE374041274
:105870002A3D7F100226CD12587B22E0F8A3E0F5E6
:1058800083888222E0FCA3E0FDAA0AAB0B22E51686
:105890002402FCE43517FDE516240FF582E43517E4
:1058A000F583E0F97A067B8012380F740722E0F561
:1058B0000CA3E0F50D750E00780C22A3A3A3A3A3FF
:1058C000EAF0A3EBF02274F112243E74F4122AD110
:1058D0008A088B09ECFEEDFF740B122CFB7403F0AD
:1058E000122A931233E312641F7403122A931233A1
:1058F000DDE9600A125A8B6010E06401600B8518C4
:10590000828519837484025A378E828F83A3A3A35E
:10591000A3A3A3A3A3E06013F46010125A8B701624
:10592000EE241412654F6003F4700B8518828519FC
:10593000837482025A3712760EE064217002A3E06B
:105940006003025A0E851882851983748CF0125AEE
:105950008B60030259F87401122A9BEE240BFAE4BF
:105960003FFB123FA1E960030259F812361D8A0A73
:105970008B0BEA4B7003025A388E0C8F0D750E009C
:10598000780C122A267C157D00126FBC122A3D85E8
:105990000882850983A3A3E50A2415FCE4350BFDE1
:1059A000740912294E12723FC0E0E50A241E125AF1
:1059B00070D0E0125EC8C0E0E50A241F125A70D011
:1059C000E0F0E50A2420125A707405F0EE240BFE74
:1059D00050010FFAEFFB1248717D007C007900EE58
:1059E000FAEFFB1237C79080B61228517A007B106D
:1059F000125A9C122A3D8073125A78122A2E125A79
:105A0000A7123F837401122A3DE9702C8014125AA8
:105A100078122A2E125AA7123F897401122A3DE9E0
:105A2000700D851882851983E4F01235ED800985A3
:105A300018828519837488F012723FF50A780A1269
:105A40002A2E7401122A8B880A890B780A122A2AB4
:105A5000E508240CF582E43509125A944480F50BCC
:105A6000780A122A2A126401122A3D740C026DD29D
:105A7000F582E4350BF58322EE2414125A83F50ADD
:105A8000780A22F582E43FF583E022EE2413125ACD
:105A900083640322F583E0F50AA3E0229019A3E0D2
:105AA000F9123395740422EE240BFCE43FFD8E8240
:105AB0008F83A3A3A3A3A3A3A3A3A312727A8E820B
:105AC0008F83A3A3A3A3A3A3A3A3E0F922C082C0AF
:105AD0008374F3122AD1851882851983E4F00412A5
:105AE0002CFB1258C07403122CFBAA82AB83123B0E
:105AF00033AA18AB19123B6F740D122A3D0264A32E
:105B000074F612243E126548F8A3E0125B43F89045
:105B100019B4E058F508A3E059F509E5084509600E
:105B20001F7808122A2A90196D122855EE240E1299
:105B3000654FFD7C0012655612381B7404122A3D15
:105B400002534A8882F583125B4B22E0FAA3E0F904
:105B5000EA2274EA12243E74DB122AD18A148B15CD
:105B600075120075130012751F3515F5831261AC9F
:105B7000F50EAC18AD197A007B00799C123CAD7A19
:105B8000047900123B99EAF50C851882851983E0A7
:105B90002AF0F8E50EC3984003025D76E0C3950E47
:105BA000F509C394044003750903E50975F01AA4C7
:105BB000FAABF01232CF8A128B13EA4B7003025DFC
:105BC00079750D00AE12AF13850E08025C567C0885
:105BD0007D0079FFEE240AFAE43FFB123215850AB4
:105BE00082850B83A3A3A3A3E0702D850A82850B76
:105BF000831268C6700C127453F0EE241812745697
:105C00008010125DFEF0901CB5E014C0E0125DE162
:105C1000D0E0125E31E48034901CB5E004C0E012A4
:105C20005DE1D0E0125E24C39403EE4003025CDF2A
:105C30001275147402125E2464017003025CECEEAF
:105C40002415125E01F0EE2416125E01F0EE241A05
:105C5000FE50010F050DE50DC395094003025D17C8
:105C6000E508C3950C4003025CF5AA087B00123BD3
:105C7000E78A0A8B0B0508901CA2125E0A850A822D
:105C8000850B83126071125DD9F583E8F0A3E912E8
:105C90005E41850A82850B83A3A3A3A3A3A3A3A329
:105CA000A3A3E0C0E0125DCFD0E0F07401122CFBA2
:105CB000E4F0850A82850B831260717402122CFB5A
:105CC000E81276587401122A93123B5DE964016070
:105CD00003025BCE7404122CFB125DEF025BDE123A
:105CE0005DFF125E2464036003025C3FEE24151224
:105CF0007456025C45E50CC3950E4005750800809E
:105D00001DE50EC3950CF5088014125DFEF0EE241F
:105D10001AFE50010F050DE50DC39509505B740E79
:105D2000122A9BAA087B007987123CAD05087418DB
:105D3000122CFB125E0A7410122CFB125DEFEE2483
:105D400012F8E43FF9740E122CFB12634788828923
:105D500083EAF0A3EB125E317403125E41741D12EC
:105D60002CFBE0C0E0125DCFD0E0127735E849703F
:105D7000991274538097750900750A00780A122ADF
:105D80002E7812122A2A7809122A2EE50EF50978A1
:105D900009122A2E7405122CFBE0FD7C00E514127A
:105DA00062C43515FBE5141274443515F583E0F92A
:105DB0001238577405122A3DE51245136007AA12DE
:105DC000AB131232D57425122A3D7F0E0226CDEE7A
:105DD0002419F582E43FF58322EE2412F582E43F94
:105DE00022125DE522EE2418F582E43FF58322AC11
:105DF00082AD83EE240AFAE43FFB1233E322EE2461
:105E000014F582E43FF583740122126ACB8E828FEF
:105E100083E8F0A3E9F07CB67D1CEE1262C43FFB80
:105E20001233E322F0850A82850B83A3A3A3A3E0A8
:105E3000221274977402F0EE2416F582E43FF58383
:105E400022F0EE2417F582E43FF5837402F0125D30
:105E5000E574FFF02274F612243E74F9122AD1126E
:105E6000751B35091279AC851882851983122CE4CB
:105E70008E828F83A3A3A3A3E0C0E07404122CFB43
:105E8000D0E012774AF87405122CFB7401F0740606
:105E9000122CFB7401F0901977F0901980041275A0
:105EA00039FAA3E0FB9019781258C0E890198112D2
:105EB0005EC8901976F0AA18AB19123C4DE9600340
:105EC000123C537407025347F0E508240F1272473F
:105ED0002274F212243E74FF122AD17508007E004B
:105EE0007F0012419F8A0A8B0B12605180080508BF
:105EF00012605D126071E84970F4901B12E0600757
:105F000064016003025FC9126051800612605D1275
:105F10006071E849603388828983126347901CA2CC
:105F2000E06A7003A3E06B600A12605D126347EAE7
:105F30004B70D988828983126071901CA2E06870CE
:105F400003A3E0697003025FC97A167B001276CD65
:105F50006077901CA21260718A828B83E812765857
:105F6000901C97126BADF0124301E98E828F83A3D0
:105F7000A3A3A3A3F0901EB2E08E828F83A3A3A35A
:105F8000A3A3A3F07CB67D1CEE240B125DF6AA1829
:105F9000AB197941123A13851882851983E060089C
:105FA00090196D126071800478FE79FF8E828F8364
:105FB000A3A3A3A3A3A3A3E8127658EE1260653FA0
:105FC0001260758E0A8F0B0508901981E0F8E508BC
:105FD000C398500479008027E508C398F9C3940654
:105FE000400279057800800DE50A126065350B12D4
:105FF0005A94F50B08901981E0FAE8C39A40E975C4
:1060000009007809122A2E780A122A2AE9F5097855
:1060100009122A2E901981E0F5097809122A2EAD6D
:10602000087C007A787B19901976E0F9123851745F
:1060300005122A3D901B12E060046401700BEE4FC4
:106040006007EEFAEFFB1232D5123C53740102776F
:106050008812419F8A0C8B0DA80CA90D22E81260B2
:106060006539F583222414F582E422851882851986
:1060700083126ACB22F583E50AF0A3E50BF02274C4
:10608000F012243E74FF122AD18A0A8B0B7E008EF6
:106090000E8E0F12751F125A731261ACFFAC18AD41
:1060A000197A007B00799D123CAD85188285198391
:1060B000E0F8EFC3984003026153E0C39FFEC3942E
:1060C0000B40027E0AEE75F007A4FAABF01262BC38
:1060D0008A0E8B0FEA4B6079750C00801A85088256
:1060E000850983A3A3A3A3A37403F0E5082407F5FC
:1060F0000850020509050CE50CC39E5056AC08ADCE
:1061000009E50C2FFAE43400FB798B123CAD8508CD
:1061100082850983A3A3A3A3A3E0146008146013DA
:1061200014601F80B8850882850983A3A3A3A3A355
:10613000E480B7850882850983A3A3A3A3A3740180
:1061400080A8850882850983A3A3A3A3A3740280E2
:10615000997E007508007808122A2E780E122A2AD5
:10616000EEF5087808122A2EEFF5087808122A2E84
:106170007405122CFBE0FD7C00E50A1262C4350BAD
:10618000FBE50A127444125A73E0F912385D740583
:10619000122A3DE50E450F6007AA0EAB0F1232D54D
:1061A0007401122A3D02523412587DA312587BE02A
:1061B0002274EE12243E74FE122AD18A0C8B0D75C5
:1061C000100075110012751F350DF5831261ACF5C5
:1061D0000AAC18AD197A007B0079A3123F8F1260C8
:1061E0006BC3E50A98E4995074851882851983A8D1
:1061F0000AE0C398FEA3E09400FFC3EE9404EF947A
:106200000040067E037F008004EE4F6050EEFAEF00
:10621000FBEA75F015A4FAA8F075F015EBA42812A6
:1062200062BB8A108B11EA4B6033750B00750E0050
:10623000801FAC08AD09A80AE50E28FAE43400FB7B
:1062400079A2123F8FE5082415F5085002050905CB
:106250000EC3E50E9EE49F40D9EEF98005750B8BC9
:1062600079007508007808122A2E7810122A2AE977
:10627000F5087808122A2EE50AF5087808122A2E61
:106280007405122CFBE0FDAC0BE50C1262C4350D5D
:10629000FBE50C127444350DF583E0F91238637494
:1062A00005122A3DE51045116007AA10AB11123204
:1062B000D57402122A3D7F0A0226CDFB1232CF8A04
:1062C000088B09222402FAE42274F612243E74FF99
:1062D000122AD1EAFEEBFF1263221263478A82F58B
:1062E00083A3A3A3A3A3A3A3A3E0F9123C71E9850D
:1062F0001882851983F07508007808122A2E740117
:10630000122A8B880889097808122A2A7508357597
:1063100009807808122A2A12632A122A3D7401027F
:106320005347EA1275243FF583227901126336FA46
:10633000E43F12641822EE2402FCE43FFDEE240F39
:106340002285188285198312727A2274F412243EEF
:1063500074FA122AD112751B126FAE12764AFFEE32
:10636000FAEFFB123B39E9600F12641FEEFAEFFB04
:106370001233DDE96401700A7401122CFBE4F0A30E
:1063800080097401122CFBEEF0A3EF127775F8A2CE
:10639000E650087403122CFB7401F0E8A2E75008E1
:1063A0007404122CFB7401F07405122CFBE4F0044D
:1063B000122A93123CA1E9851882851983F09080F6
:1063C000CA122CCC12429B7A007B001242A77A00A0
:1063D0007B001242A1750A00780A122A2E7401125B
:1063E0002A8B880A890B780A122A2A750A34750BB7
:1063F00080780A122A2A126401122A3D7406025277
:10640000967901E5082402FCE43509FDE508240F2E
:10641000FAE4350912641822FB1237BB7405221204
:1064200042778A0A8B0BAC0AAD0B2274F612243E1B
:1064300074FF122AD1126548F8A3E08882F583E040
:10644000F509A3E0F508A909123C5FE985188285E2
:106450001983F0901B12E0700B740165087005A998
:106460000912391DEE240B12654F7027750800784C
:1064700008122A2E7401122A8B88088909780812BA
:106480002A2A7508367509807808122A2A12632A82
:10649000122A3D02631DC082C083901B12E070036C
:1064A000123923D083D0820229D274F412243E748C
:1064B000EF122AD1EAFEEBFF12656DF508E439F51B
:1064C0000990196DE06A7003A3E0697052A818A9D9
:1064D00019880A890B780A122A2A750A11750B0085
:1064E000780A122A2A7C007D007A817B00123359B7
:1064F0007404122A3DE97027750A00780A122A2EC0
:106500007401122A8B880A890B780A122A2AAC088D
:10651000AD091265561238157403122A3D80247590
:106520000A11750B80780A122A2A7808122A2AEE94
:10653000240E12654FFD7C841265561238217404B6
:10654000122A3D7411025296EAFEEBFFEA2413F57B
:1065500082E4125A862212655A22EE2402FAE43F9D
:10656000FBEE240FF582E43FF583E0F9221265711A
:1065700022EA2413F582E43FF583126E448882F503
:1065800083E0FAA3E0F8E4C8F9EA282274F11224BF
:106590003E74EB122AD1EAFEEBFF12751F1266ACB5
:1065A000FAE4CAFBEC2AF50890196DE06C7003A3BD
:1065B000E06B600302665188828983A3A3E0941094
:1065C000500F88828983A3A3E08518828519838070
:1065D000088518828519837410F0E0C0E0740412F5
:1065E0002CFBD0E0127639A982AA83890C8A0D751A
:1065F0000E00780C122A267407122CFBE0FC7D009A
:106600007408122CFBAA82AB83126FBC122A3D7451
:1066100004122A8B880A890B780A122A2A750A1111
:10662000750B00780A122A2A7C007D007A817B0093
:106630001233537404122A3D7404122CFBE0901997
:10664000AC6005E0D2E48003E0C2E41266B4E4800A
:10665000088518828519837484F0E0C0E074011203
:106660002CFBD0E0F07402122CFBE508F07403124E
:106670002CFBE508F01266A53F127293122A2E74C5
:1066800002122A8B880889097808122A2A750814A8
:106690007509807808122A2A790312632C122A3D80
:1066A0007415026DD2EE240EF582E4223F12765D5F
:1066B000FCA3E022F08518828519832274F6122447
:1066C0003E74E0122AD1EAFEEBFF901CA4E06408BD
:1066D0006008E0640460030268A0AC18AD191237CA
:1066E000A3901B12E0640270271242777402122CEE
:1066F000FBAC82AD831233DDE960151268A5851805
:1067000082851983E0687003A3E06970030268A0C2
:1067100012444B7402122CFBAC82AD831263411203
:106720004349E9640170030268A07418122A9312A5
